:100000000C949E000C94C6000C94C6000C94C60080
:100010000C94C6000C94C6000C94C6000C94C60048
:100020000C94C6000C94C6000C94C6000C940804F2
:100030000C94C6000C94C6000C94C6000C94C60028
:100040000C94BE030C94C6000C948C030C946603B1
:100050000C94C6000C94C6000C94C6000C94C60008
:100060000C94C4040C94C60007634236B79BD8A70F
:100070001A39685618AEBAAB558C1D3CB7CC5763CD
:10008000BD6DEDFD753EF6177231BF000000803F7B
:1000900008000000BE922449123EABAAAA2ABECD97
:1000A000CCCC4C3E00000080BEABAAAAAA3E000009
:1000B0000000BF000000803F000000000008417801
:1000C000D3BB4387D1133D190E3CC3BD4282AD2B38
:1000D0003E68EC8276BED98FE1A93E4C80EFFFBE30
:1000E00001C4FF7F3F000000000000000008000284
:1000F00001000003040700000000000000000000F1
:100100000000250028002B0000000000240027002C
:100110002A00040404040404040402020202020289
:1001200003030303030301020408102040800102BB
:1001300004081020010204081020DF0511241FBE4E
:10014000CFEFD8E0DEBFCDBF11E0A0E0B1E0E8EF37
:10015000F9E102C005900D92A231B107D9F722E072
:10016000A2E1B1E001C01D92A636B207E1F710E0AE
:10017000CEE9D0E004C02197FE010E94F40CCD39F5
:10018000D107C9F70E943C060C94FA0C0C940000AD
:10019000CF92DF92EF92FF92DC01A03282E0B807AB
:1001A000D4F5A53BB10514F0A4EBB0E04091640296
:1001B00028E830E0241B310947FD3395220F331F17
:1001C000220F331F6901330FEE08FF0840916502CB
:1001D00028E532E0241B310947FD3395220F331FF8
:1001E000220F331F032E000C440B550B2C193D0915
:1001F0004E095F09B7FF02C0B0E0A0E00E94EC0822
:1002000024EB30E040E050E00E94C208C20ED31E52
:10021000E41EF51ED601E0916302EC3080F52091DA
:10022000640288E890E0821B910927FD9395880F6E
:10023000991F880F991FA817B90784F020916502AC
:1002400088E592E0821B910927FD9395880F991FFD
:10025000880F991FA817B9070CF4CD010297880FD2
:10026000991F4FB7F8942E2F30E0F901EE0FFF1FC2
:10027000E20FF31FE25CFD4F928381834FBFFF903B
:10028000EF90DF90CF900895AF92BF92CF92DF9220
:10029000EF92FF920F931F93CF93DF936C017B013B
:1002A0008B01040F151FEB015E01AE18BF08C017CC
:1002B000D10759F06991D601ED91FC910190F0813F
:1002C000E02DC6010995892B79F7C501DF91CF9102
:1002D0001F910F91FF90EF90DF90CF90BF90AF9064
:1002E0000895FC01538D448D252F30E0842F90E03C
:1002F000821B930B541710F0CF9608950197089521
:10030000FC01918D828D981761F0A28DAE0FBF2FE9
:10031000B11D5D968C91928D9F5F9F73928F90E03F
:1003200008958FEF9FEF0895FC01918D828D9817AE
:1003300031F0828DE80FF11D858D90E008958FEFEB
:100340009FEF0895FC01918D228D892F90E0805CB4
:100350009F4F821B91098F739927089581EA91E03D
:100360000E94A20121E0892B09F420E0822F089548
:1003700080E090E0892B29F00E94AE0181110C945D
:1003800000000895FC01A48DA80FB92FB11DA35A38
:10039000BF4F2C91848D90E001968F739927848FA5
:1003A000A689B7892C93A089B1898C9183708064C8
:1003B0008C93938D848D981306C00288F389E02D69
:1003C00080818F7D80830895EF92FF920F931F931A
:1003D000CF93DF93EC0181E0888F9B8D8C8D9813F8
:1003E0001AC0E889F989808185FF15C09FB7F89404
:1003F000EE89FF896083E889F98980818370806450
:1004000080839FBF81E090E0DF91CF911F910F919A
:10041000FF90EF900895F62E0B8D10E00F5F1F4FA9
:100420000F731127E02E8C8D8E110CC00FB607FCB8
:10043000FACFE889F989808185FFF5CFCE010E9446
:10044000C201F1CFEB8DEC0FFD2FF11DE35AFF4FF1
:10045000F0829FB7F8940B8FEA89FB8980818062D4
:10046000CFCFCF93DF93EC01888D8823B9F0AA8991
:10047000BB89E889F9898C9185FD03C0808186FD5F
:100480000DC00FB607FCF7CF8C9185FFF2CF8081AE
:1004900085FFEDCFCE010E94C201E9CFDF91CF9160
:1004A000089590E0FC01E651FF4F2491FC01EA5DC4
:1004B000FE4F3491FC01EE5EFE4FE491EE23C9F055
:1004C000222339F0233001F1A8F4213019F1223030
:1004D00029F1F0E0EE0FFF1FE250FF4FA591B4911C
:1004E0008FB7F894EC91611126C030953E233C9370
:1004F0008FBF08952730A9F02830C9F0243049F77C
:10050000809180008F7D03C0809180008F778093E1
:100510008000DFCF84B58F7784BDDBCF84B58F7D3E
:10052000FBCF8091B0008F778093B000D2CF8091C5
:10053000B0008F7DF9CF3E2BDACF20913901260F05
:100540003327331F21323105ECF420915D01FC018A
:1005500090E080E0243069F082E00895A0913901B4
:100560002191AC01475E5E4FA40FB52FB11D2C93B6
:100570000196861798F380913901680F60933901CD
:1005800080E0089581E0089508958FEF9FEF08952A
:100590008FEF9FEF08958091120190E091958195E2
:1005A00091090895CF93DF93CB01EA01642F0E9454
:1005B0009D02CE01DF91CF910895CF93DF931F92DB
:1005C000CDB7DEB7698361E0CE0101960E949D023E
:1005D00081E090E00F90DF91CF91089590E080E06E
:1005E00008951F93CF93DF9385ED8093BC00809196
:1005F000150190911601A0911701B091180107966D
:10060000A11DB11D23E0B695A795979587952A95CD
:10061000D1F72091BC0024FD03C010925D0152C0AF
:1006200040911501509116016091170170911801C8
:10063000452B462B472B69F30097A105B10541F0E7
:100640002AE22A95F1F700C00197A109B109E1CF8B
:1006500080911401C1E0C0931301882399F1D091D6
:10066000B8001091BA008091BC008A7B8093BC00D6
:1006700060E082E10E94510260E083E10E94510249
:1006800010925D01C0935F0110925E0161E082E112
:100690000E94510261E083E10E9451028091B90001
:1006A0008E7F8093B9008091B9008D7F8093B900CF
:1006B00088E48093B80085E48093BC001093BA006E
:1006C000D093B800DF91CF911F9108951F920F92A0
:1006D0000FB60F9211242F933F934F935F936F9315
:1006E0007F938F939F93AF93BF93EF93FF9381EA91
:1006F00091E00E94C201FF91EF91BF91AF919F9154
:100700008F917F916F915F914F913F912F910F90BA
:100710000FBE0F901F9018951F920F920FB60F9259
:1007200011242F938F939F93EF93FF93E091B10147
:10073000F091B2018081E091B701F091B80182FDA2
:100740001BC090818091BA018F5F8F732091BB0194
:10075000821741F0E091BA01F0E0EF55FE4F958F1E
:100760008093BA01FF91EF919F918F912F910F90FC
:100770000FBE0F901F9018958081F4CF1F920F929B
:100780000FB60F9211242F933F938F939F93AF93A4
:10079000BF938091890190918A01A0918B01B091C2
:1007A0008C013091880123E0230F2D3758F50196F5
:1007B000A11DB11D209388018093890190938A0126
:1007C000A0938B01B0938C0180918401909185015D
:1007D000A0918601B09187010196A11DB11D809362
:1007E000840190938501A0938601B0938701BF9106
:1007F000AF919F918F913F912F910F900FBE0F90CE
:100800001F90189526E8230F0296A11DB11DD2CF87
:100810001F920F920FB60F9211242F933F934F9375
:100820005F936F937F938F939F93AF93BF93CF9378
:10083000DF93EF93FF9380918301C0916202D0E038
:1008400087FF24C01092850010928400809183015C
:100850008F5F8093830180918301082E000C990B98
:100860008C179D0724F4809183018C30C4F1809112
:10087000840090918500049680349C4908F47AC0E5
:100880008091840090918500049676C080918301C8
:10089000082E000C990B8C179D07C4F6E09183017C
:1008A0008E2FEE0F990BFC01EE0FFF1FE80FF91FC3
:1008B000E25CFD4F808186FFC9CFE09183018E2FDE
:1008C000EE0F990BFC01EE0FFF1FE80FF91FE25C22
:1008D000FD4F808160E08F730E945102B7CF20915D
:1008E000840030918500E09183018E2FEE0F990BEB
:1008F000FC01EE0FFF1FE80FF91FE25CFD4F818145
:100900009281820F931F9093890080938800E091D9
:1009100083018E2FEE0F990BFC01EE0FFF1FE80FE6
:10092000F91FE25CFD4F808186FF11C0E0918301D9
:100930008E2FEE0F990BFC01EE0FFF1FE80FF91F32
:10094000E25CFD4F808161E08F730E945102FF9154
:10095000EF91DF91CF91BF91AF919F918F917F9157
:100960006F915F914F913F912F910F900FBE0F901C
:100970001F90189580E49CE99093890080938800EB
:100980008FEF80938301E3CF1F920F920FB60F92E8
:1009900011242F933F934F935F936F937F938F9384
:1009A0009F93AF93BF93EF93FF938091B900887F9C
:1009B000803609F44AC0F0F5883209F4A5C018F56C
:1009C000803109F499C0B8F4882309F4F5C088305F
:1009D00009F492C0FF91EF91BF91AF919F918F91D8
:1009E0007F916F915F914F913F912F910F900FBE2B
:1009F0000F901F901895883109F486C0803251F706
:100A000080935C0114C0803409F49BC040F48033AF
:100A1000B9F38833F9F680935C0185ECAEC080357C
:100A200009F483C0883509F494C0883499F60E948B
:100A3000F102D0CF883909F48AC038F5883729F017
:100A400050F4883611F0803729F683E080935D01F9
:100A500010925B0155C0883809F479C0803919F0CB
:100A6000803809F0B7CF80915B01803208F06FC009
:100A7000E0915B0181E08E0F80935B018091BB0070
:100A8000F0E0E55CFE4F80833BC0803B39F0D0F462
:100A9000803A09F477C0883A09F09CCF84E08093CB
:100AA0005D0110923A0110923901F0E0E0E0099501
:100AB0008091390181110FC081E08093390110923A
:100AC000190109C0803C09F4A8CF883C09F4A5CFDE
:100AD000883B09F07FCFE0913A0181E08E0F80934F
:100AE0003A01F0E0E75EFE4F80818093BB00909179
:100AF0003A018091390129C0809182018093BB0025
:100B000085EC8093BC0066CF90918101809180013B
:100B1000981758F5E091810181E08E0F8093810153
:100B2000F0E0E05AFE4F8081E9CFE091810181E061
:100B30008E0F809381018091BB00F0E0E05AFE4F60
:100B4000808390918101809180019817C8F285E897
:100B5000D8CFE091810181E08E0F80938101809157
:100B6000BB00F0E0E05AFE4F808380915F0181116D
:100B70005ECF81E080935E0184EA8093BC00109296
:100B80005D0128CF85EC8093BC0010925D018091BF
:100B90005B01803230F4E0915B01F0E0E55CFE4FF8
:100BA000108260915B0170E08BE391E0F0E0E0E0A7
:100BB000099510925B010ECF10925C0138CF109214
:100BC000A4011092A30188EE93E0A0E0B0E080932E
:100BD000A5019093A601A093A701B093A80184E07A
:100BE00091E09093A2018093A10185EC90E0909315
:100BF000AE018093AD0184EC90E09093B0018093BE
:100C0000AF0180EC90E09093B2018093B10181EC50
:100C100090E09093B4018093B30182EC90E09093C4
:100C2000B6018093B50186EC90E09093B801809373
:100C3000B7011092BA011092BB011092BC01109240
:100C4000BD01809162028C3098F491E0980F9093EE
:100C500062028093630290E0FC01EE0FFF1FE80F39
:100C6000F91FE25CFD4F88EB9BE09283818308953E
:100C70008FEF809363020895789484B5826084BD79
:100C800084B5816084BD85B5826085BD85B5816090
:100C900085BD80916E00816080936E00109281000E
:100CA00080918100826080938100809181008160C9
:100CB000809381008091800081608093800080918A
:100CC000B10084608093B1008091B0008160809316
:100CD000B00080917A00846080937A0080917A00DD
:100CE000826080937A0080917A00816080937A009C
:100CF00080917A00806880937A001092C100E09120
:100D0000B101F091B20182E08083E091AD01F091F8
:100D1000AE011082E091AF01F091B0018FEC8083C1
:100D20001092B901E091B501F091B60186E080839F
:100D3000E091B301F091B401808180618083E09102
:100D4000B301F091B401808188608083E091B301A8
:100D5000F091B401808180688083E091B301F091CB
:100D6000B40180818F7D8083809163028C3008F094
:100D700068C0EFE2F1E02491EBE1F1E08491882397
:100D800099F090E0880F991FFC01E85FFE4FA59154
:100D9000B491FC01E250FF4F859194918FB7F89484
:100DA000EC91E22BEC938FBF80916302282F30E00F
:100DB000F901EE0FFF1FE20FF31FE25CFD4F908180
:100DC000907C9960908310926402109265022CE0EE
:100DD000622F0E94E80C829FB001112430E020E0D5
:100DE000AB01420F531FFA01EE0FFF1FE40FF51F77
:100DF000E25CFD4F908196FD16C02F5F3F4F2C3077
:100E0000310571F781110FC01092800082E080934C
:100E100081001092850010928400B19A80916F0039
:100E2000826080936F00E09163028E2F90E0FC015E
:100E3000EE0FFF1FE80FF91FE25CFD4F8081806419
:100E400080838DE790E00E94C800E4E3F1E0249104
:100E5000E0E2F1E084918823C1F090E0880F991FCF
:100E6000FC01E85FFE4FC591D491FC01E250FF4FB9
:100E7000A591B4919FB7F8948881E22FE0958E23D5
:100E800088838C91E823EC939FBF2FB7F8946091EF
:100E9000890170918A0180918B0190918C012FBF03
:100EA0000E943F0A60939D0170939E0180939F0171
:100EB0009093A00110E4C0E0D0E02FB7F8946091C7
:100EC000890170918A0180918B0190918C012FBFD3
:100ED0000E943F0A6B017C0120E030E048E452E4CC
:100EE00060919D0170919E0180919F019091A00160
:100EF0000E9426099B01AC01C701B6010E94F10ABC
:100F000018160CF01EC12FB7F894609189017091EA
:100F10008A0180918B0190918C012FBF0E943F0A22
:100F200060939D0170939E0180939F019093A00117
:100F300044E650E060E070E0CB0110937C0020912B
:100F40007A00206420937A0020917A0026FDFCCF5D
:100F5000C0907800D09079000D2C000CEE08FF08AE
:100F60006C0D7D1D8E1D9F1D4150510931F724E6EA
:100F700030E040E050E00E94C208CA01B9010E947E
:100F8000410A23EC34E64AE95FEB0E94630B26E654
:100F900033E449E856E40E94F60A9B01AC0160E0A4
:100FA00070E088EA91E40E9425096B017C01C092FF
:100FB0009901D0929A01E0929B01F0929C0120E06D
:100FC00030E040E051E40E94F60A2B013C01209100
:100FD0009501309196014091970150919801C70178
:100FE000B6010E94250920E030E048E452E40E9466
:100FF000970920E030EC41E455E40E94F60A4B01E9
:101000005C0120E030E040E450ECC701B6010E94F2
:10101000F10A18160CF0A0C020E030E040E450E4E3
:10102000C701B6010E94920987FF96C02DEC3CECE7
:101030004CE45EE3C701B6010E94F60A9B01AC01D5
:10104000609191017091920180919301909194012E
:101050000E942609609391017093920180939301FD
:1010600090939401209191013091920140919301CC
:1010700050919401C301B2010E942609A501940177
:101080000E9426090E94090A9B01AC012A563F4F83
:101090004F4F5F4FA6E9B0E00E94E1082CE231E03B
:1010A00040E050E00E94C208CA01B9010E94410A12
:1010B0004B015C0120E030E040EA51E40E949209DB
:1010C00087FD53C080928D0190928E01A0928F0176
:1010D000B092900120E030E040E253E460918D0155
:1010E00070918E0180918F01909190010E94F10A80
:1010F000181664F480E090E0A0E2B3E480938D01E0
:1011000090938E01A0938F01B093900120E030E086
:1011100040EF51E460918D0170918E0180918F01BB
:10112000909190010E9426090E94090ACB010E9419
:10113000C800C0929501D0929601E0929701F0927A
:101140009801209709F4B9CE0E94AE01882309F4D2
:10115000B4CE0E940000B1CE109291011092920183
:1011600010929301109294017DCF80E090E0A0EA6C
:10117000B1E480938D0190938E01A0938F01B09381
:101180009001A8CF052E97FB1EF400940E94D90869
:1011900057FD07D00E94F40807FC03D04EF40C94CE
:1011A000D90850954095309521953F4F4F4F5F4F4F
:1011B000089590958095709561957F4F8F4F9F4FC3
:1011C00008950E941609A59F900DB49F900DA49FAD
:1011D000800D911D11240895B7FF0C94E1080E9421
:1011E000E108821B930B0895A1E21A2EAA1BBB1BD8
:1011F000FD010DC0AA1FBB1FEE1FFF1FA217B307E3
:10120000E407F50720F0A21BB30BE40BF50B661FF8
:10121000771F881F991F1A9469F7609570958095BC
:1012200090959B01AC01BD01CF010895A29FB00133
:10123000B39FC001A39F700D811D1124911DB29F0A
:10124000700D811D1124911D08955058BB27AA27A8
:101250000E943D090C94B70A0E94A90A38F00E9426
:10126000B00A20F039F49F3F19F426F40C94A60A32
:101270000EF4E095E7FB0C94A00AE92F0E94C80A3F
:1012800058F3BA17620773078407950720F079F4BB
:10129000A6F50C94EA0A0EF4E0950B2EBA2FA02DB9
:1012A0000B01B90190010C01CA01A0011124FF2713
:1012B000591B99F0593F50F4503E68F11A16F0400E
:1012C000A22F232F342F4427585FF3CF469537950D
:1012D0002795A795F0405395C9F77EF41F16BA0BD2
:1012E000620B730B840BBAF09150A1F0FF0FBB1F80
:1012F000661F771F881FC2F70EC0BA0F621F731FC9
:10130000841F48F4879577956795B795F7959E3F25
:1013100008F0B0CF9395880F08F09927EE0F9795B6
:10132000879508950E947C0A08F481E008950E9440
:10133000AB090C94B70A0E94B00A58F00E94A90A9F
:1013400040F029F45F3F29F00C94A00A51110C944D
:10135000EB0A0C94A60A0E94C80A68F39923B1F319
:10136000552391F3951B550BBB27AA2762177307CB
:10137000840738F09F5F5F4F220F331F441FAA1F5F
:10138000A9F335D00E2E3AF0E0E832D0915050401B
:10139000E695001CCAF72BD0FE2F29D0660F771FC9
:1013A000881FBB1F261737074807AB07B0E809F0AF
:1013B000BB0B802DBF01FF2793585F4F3AF09E3F34
:1013C000510578F00C94A00A0C94EB0A5F3FE4F30B
:1013D000983ED4F3869577956795B795F7959F5F77
:1013E000C9F7880F911D9695879597F90895E1E0C3
:1013F000660F771F881FBB1F621773078407BA0722
:1014000020F0621B730B840BBA0BEE1F88F7E0957C
:1014100008950E94100A6894B1110C94EB0A089583
:101420000E94D00A88F09F5798F0B92F9927B7519A
:10143000B0F0E1F0660F771F881F991F1AF0BA9578
:10144000C9F714C0B13091F00E94EA0AB1E00895E2
:101450000C94EA0A672F782F8827B85F39F0B93FD4
:10146000CCF3869577956795B395D9F73EF490952B
:101470008095709561957F4F8F4F9F4F0895E894A9
:1014800009C097FB3EF490958095709561957F4FCC
:101490008F4F9F4F9923A9F0F92F96E9BB2793957A
:1014A000F695879577956795B795F111F8CFFAF48A
:1014B000BB0F11F460FF1BC06F5F7F4F8F4F9F4FBB
:1014C00016C0882311F096E911C0772321F09EE819
:1014D000872F762F05C0662371F096E8862F70E07F
:1014E00060E02AF09A95660F771F881FDAF7880F59
:1014F0009695879597F90895990F0008550FAA0BAF
:10150000E0E8FEEF16161706E807F907C0F0121616
:101510001306E407F50798F0621B730B840B950B19
:1015200039F40A2661F0232B242B252B21F408956E
:101530000A2609F4A140A6958FEF811D811D08950B
:1015400097F99F6780E870E060E008959FEF80EC76
:10155000089500240A941616170618060906089519
:1015600000240A9412161306140605060895092E7F
:101570000394000C11F4882352F0BB0F40F4BF2BEE
:1015800011F460FF04C06F5F7F4F8F4F9F4F08952E
:1015900057FD9058440F551F59F05F3F71F0479524
:1015A000880F97FB991F61F09F3F79F08795089509
:1015B000121613061406551FF2CF4695F1DF08C028
:1015C000161617061806991FF1CF86957105610545
:1015D00008940895E894BB2766277727CB0197F9ED
:1015E00008950E947C0A08F48FEF08950E94090B69
:1015F0000C94B70A0E94A90A38F00E94B00A20F0A1
:10160000952311F00C94A00A0C94A60A11240C94B2
:10161000EB0A0E94C80A70F3959FC1F3950F50E042
:10162000551F629FF001729FBB27F00DB11D639F94
:10163000AA27F00DB11DAA1F649F6627B00DA11D3A
:10164000661F829F2227B00DA11D621F739FB00DE0
:10165000A11D621F839FA00D611D221F749F332750
:10166000A00D611D231F849F600D211D822F762FE9
:101670006A2F11249F5750409AF0F1F088234AF0C6
:10168000EE0FFF1FBB1F661F771F881F9150504032
:10169000A9F79E3F510580F00C94A00A0C94EB0A28
:1016A0005F3FE4F3983ED4F3869577956795B795B9
:1016B000F795E7959F5FC1F7FE2B880F911D9695D3
:1016C000879597F90895FA01EE0FFF1F30962105CF
:1016D0003105A1F16115710561F48038BFE39B0705
:1016E00049F168949038810561F08038BFEF9B071D
:1016F00041F099234AF5FF3FE1053105210519F134
:10170000E8940894E795D901AA2329F4AB2FBE2FBA
:10171000F85FD0F310C0FF5F70F4A695E0F7F739DB
:1017200050F019F0FF3A38F49F779F930DD00F9047
:1017300007FC9058089546F00C94A60A60E070E00B
:1017400080E89FE308954FE79F775F934F933F9320
:101750002F930E945E0C2F913F914F915F910E94B9
:10176000F60A0C94BB0B29F416F00C94A00A0C9406
:10177000EA0A0C94A60A0E94D00AA8F39638A0F7A9
:1017800007F80F92E8942BE33AEA48EB5FE70E94F0
:101790000C0B0F920F920F924DB75EB70F920E94F3
:1017A000A60CE8E6F0E00E94ED0B4F915F91EF91FF
:1017B000FF91E595EE1FFF1F49F0FE57E0684427B3
:1017C000EE0F441FFA95E1F74195550B0E94200C4E
:1017D0000F9007FE0C94140C0895DF93CF931F9382
:1017E0000F93FF92EF92DF927B018C01689406C009
:1017F000DA2EEF010E94090BFE01E894A5912591D4
:10180000359145915591A6F3EF010E943D09FE01E6
:101810009701A801DA9469F7DF90EF90FF900F919C
:101820001F91CF91DF9108959B01AC0160E070E0C2
:1018300080E89FE30C9497090C94A00A0C94DA0CAE
:101840000E94D00AD8F39923C9F3940F511DA3F332
:101850009150504094F059F0882332F0660F771F72
:10186000881F91505040C1F79E3F51052CF7880FBB
:10187000911D9695879597F908955F3FACF0983E36
:101880009CF0BB27869577956795B79508F4B1606E
:101890009395C1F7BB0F58F711F460FFE8CF6F5F66
:1018A0007F4F8F4F9F4FE3CF0C94EB0A16F00C94B1
:1018B000DA0C0C94A60A68940C94A00A0E94D00A30
:1018C000A8F39923C1F3AEF3DF93CF931F930F9344
:1018D000FF92C92FDD2788232AF02197660F771FF3
:1018E000881FDAF720E030E040E85FEB9FE38839BB
:1018F00020F0803E38F021968F770E942609E0E99B
:10190000F0E004C00E942609EDEBF0E00E94ED0B30
:101910008B01BE01EC01FB2E6F5771097595771F86
:10192000880B990B0E94410A28E132E741E35FE30B
:101930000E94090BAF2D9801AE01FF900F911F91EE
:10194000CF91DF910E943D090C94B70AFA01DC01A6
:10195000AA0FBB1F9B01AC01BF5728F422273327D6
:101960004427507820C0B75190F4AB2F00244695FF
:1019700037952795011CA395D2F3002071F0220F13
:10198000331F441FB395DAF30ED00C942509613050
:101990007105A0E88A07B94630F49B01AC016627BF
:1019A000772788279078309621F0208331834283EF
:1019B000538308959F3F31F0915020F48795779598
:1019C0006795B795880F911D9695879597F9089516
:1019D000991B79E004C0991F961708F0961B881F81
:1019E0007A95C9F780950895EE0FFF1F0590F49141
:0819F000E02D0994F894FFCFEB
:1019F80000000000E401440171013102A2018001EC
:021A0800940147
:00000001FF
